{
  "contractName": "SupplyChain",
  "abi": [
    {
      "inputs": [
        {
          "internalType": "string",
          "name": "name_",
          "type": "string"
        },
        {
          "internalType": "string",
          "name": "email_",
          "type": "string"
        }
      ],
      "stateMutability": "nonpayable",
      "type": "constructor"
    },
    {
      "anonymous": false,
      "inputs": [
        {
          "indexed": false,
          "internalType": "string",
          "name": "name",
          "type": "string"
        },
        {
          "indexed": false,
          "internalType": "string",
          "name": "email",
          "type": "string"
        },
        {
          "indexed": false,
          "internalType": "enum Types.UserRole",
          "name": "role",
          "type": "uint8"
        }
      ],
      "name": "LostUser",
      "type": "event"
    },
    {
      "anonymous": false,
      "inputs": [
        {
          "indexed": false,
          "internalType": "string",
          "name": "name",
          "type": "string"
        },
        {
          "indexed": false,
          "internalType": "string",
          "name": "manufacturerName",
          "type": "string"
        },
        {
          "indexed": false,
          "internalType": "string",
          "name": "scientificName",
          "type": "string"
        },
        {
          "indexed": false,
          "internalType": "string",
          "name": "barcodeId",
          "type": "string"
        },
        {
          "indexed": false,
          "internalType": "uint256",
          "name": "manDateEpoch",
          "type": "uint256"
        },
        {
          "indexed": false,
          "internalType": "uint256",
          "name": "expDateEpoch",
          "type": "uint256"
        }
      ],
      "name": "NewProduct",
      "type": "event"
    },
    {
      "anonymous": false,
      "inputs": [
        {
          "indexed": false,
          "internalType": "string",
          "name": "name",
          "type": "string"
        },
        {
          "indexed": false,
          "internalType": "string",
          "name": "email",
          "type": "string"
        },
        {
          "indexed": false,
          "internalType": "enum Types.UserRole",
          "name": "role",
          "type": "uint8"
        }
      ],
      "name": "NewUser",
      "type": "event"
    },
    {
      "anonymous": false,
      "inputs": [
        {
          "indexed": false,
          "internalType": "string",
          "name": "name",
          "type": "string"
        },
        {
          "indexed": false,
          "internalType": "string",
          "name": "manufacturerName",
          "type": "string"
        },
        {
          "indexed": false,
          "internalType": "string",
          "name": "scientificName",
          "type": "string"
        },
        {
          "indexed": false,
          "internalType": "string",
          "name": "barcodeId",
          "type": "string"
        },
        {
          "indexed": false,
          "internalType": "string",
          "name": "buyerName",
          "type": "string"
        },
        {
          "indexed": false,
          "internalType": "string",
          "name": "buyerEmail",
          "type": "string"
        }
      ],
      "name": "ProductOwnershipTransfer",
      "type": "event"
    },
    {
      "inputs": [],
      "name": "getAllProducts",
      "outputs": [
        {
          "components": [
            {
              "internalType": "string",
              "name": "name",
              "type": "string"
            },
            {
              "internalType": "string",
              "name": "manufacturerName",
              "type": "string"
            },
            {
              "internalType": "address",
              "name": "manufacturer",
              "type": "address"
            },
            {
              "internalType": "uint256",
              "name": "manDateEpoch",
              "type": "uint256"
            },
            {
              "internalType": "uint256",
              "name": "expDateEpoch",
              "type": "uint256"
            },
            {
              "internalType": "bool",
              "name": "isInBatch",
              "type": "bool"
            },
            {
              "internalType": "uint256",
              "name": "batchCount",
              "type": "uint256"
            },
            {
              "internalType": "string",
              "name": "barcodeId",
              "type": "string"
            },
            {
              "internalType": "string",
              "name": "productImage",
              "type": "string"
            },
            {
              "internalType": "enum Types.ProductType",
              "name": "productType",
              "type": "uint8"
            },
            {
              "internalType": "string",
              "name": "scientificName",
              "type": "string"
            },
            {
              "internalType": "string",
              "name": "usage",
              "type": "string"
            },
            {
              "internalType": "string[]",
              "name": "composition",
              "type": "string[]"
            },
            {
              "internalType": "string[]",
              "name": "sideEffects",
              "type": "string[]"
            }
          ],
          "internalType": "struct Types.Product[]",
          "name": "",
          "type": "tuple[]"
        }
      ],
      "stateMutability": "view",
      "type": "function",
      "constant": true
    },
    {
      "inputs": [],
      "name": "getMyProducts",
      "outputs": [
        {
          "components": [
            {
              "internalType": "string",
              "name": "name",
              "type": "string"
            },
            {
              "internalType": "string",
              "name": "manufacturerName",
              "type": "string"
            },
            {
              "internalType": "address",
              "name": "manufacturer",
              "type": "address"
            },
            {
              "internalType": "uint256",
              "name": "manDateEpoch",
              "type": "uint256"
            },
            {
              "internalType": "uint256",
              "name": "expDateEpoch",
              "type": "uint256"
            },
            {
              "internalType": "bool",
              "name": "isInBatch",
              "type": "bool"
            },
            {
              "internalType": "uint256",
              "name": "batchCount",
              "type": "uint256"
            },
            {
              "internalType": "string",
              "name": "barcodeId",
              "type": "string"
            },
            {
              "internalType": "string",
              "name": "productImage",
              "type": "string"
            },
            {
              "internalType": "enum Types.ProductType",
              "name": "productType",
              "type": "uint8"
            },
            {
              "internalType": "string",
              "name": "scientificName",
              "type": "string"
            },
            {
              "internalType": "string",
              "name": "usage",
              "type": "string"
            },
            {
              "internalType": "string[]",
              "name": "composition",
              "type": "string[]"
            },
            {
              "internalType": "string[]",
              "name": "sideEffects",
              "type": "string[]"
            }
          ],
          "internalType": "struct Types.Product[]",
          "name": "",
          "type": "tuple[]"
        }
      ],
      "stateMutability": "view",
      "type": "function",
      "constant": true
    },
    {
      "inputs": [
        {
          "internalType": "string",
          "name": "barcodeId_",
          "type": "string"
        }
      ],
      "name": "getSingleProduct",
      "outputs": [
        {
          "components": [
            {
              "internalType": "string",
              "name": "name",
              "type": "string"
            },
            {
              "internalType": "string",
              "name": "manufacturerName",
              "type": "string"
            },
            {
              "internalType": "address",
              "name": "manufacturer",
              "type": "address"
            },
            {
              "internalType": "uint256",
              "name": "manDateEpoch",
              "type": "uint256"
            },
            {
              "internalType": "uint256",
              "name": "expDateEpoch",
              "type": "uint256"
            },
            {
              "internalType": "bool",
              "name": "isInBatch",
              "type": "bool"
            },
            {
              "internalType": "uint256",
              "name": "batchCount",
              "type": "uint256"
            },
            {
              "internalType": "string",
              "name": "barcodeId",
              "type": "string"
            },
            {
              "internalType": "string",
              "name": "productImage",
              "type": "string"
            },
            {
              "internalType": "enum Types.ProductType",
              "name": "productType",
              "type": "uint8"
            },
            {
              "internalType": "string",
              "name": "scientificName",
              "type": "string"
            },
            {
              "internalType": "string",
              "name": "usage",
              "type": "string"
            },
            {
              "internalType": "string[]",
              "name": "composition",
              "type": "string[]"
            },
            {
              "internalType": "string[]",
              "name": "sideEffects",
              "type": "string[]"
            }
          ],
          "internalType": "struct Types.Product",
          "name": "",
          "type": "tuple"
        },
        {
          "components": [
            {
              "components": [
                {
                  "internalType": "address",
                  "name": "id_",
                  "type": "address"
                },
                {
                  "internalType": "uint256",
                  "name": "date",
                  "type": "uint256"
                }
              ],
              "internalType": "struct Types.UserHistory",
              "name": "manufacturer",
              "type": "tuple"
            },
            {
              "components": [
                {
                  "internalType": "address",
                  "name": "id_",
                  "type": "address"
                },
                {
                  "internalType": "uint256",
                  "name": "date",
                  "type": "uint256"
                }
              ],
              "internalType": "struct Types.UserHistory",
              "name": "supplier",
              "type": "tuple"
            },
            {
              "components": [
                {
                  "internalType": "address",
                  "name": "id_",
                  "type": "address"
                },
                {
                  "internalType": "uint256",
                  "name": "date",
                  "type": "uint256"
                }
              ],
              "internalType": "struct Types.UserHistory",
              "name": "vendor",
              "type": "tuple"
            },
            {
              "components": [
                {
                  "internalType": "address",
                  "name": "id_",
                  "type": "address"
                },
                {
                  "internalType": "uint256",
                  "name": "date",
                  "type": "uint256"
                }
              ],
              "internalType": "struct Types.UserHistory[]",
              "name": "customers",
              "type": "tuple[]"
            }
          ],
          "internalType": "struct Types.ProductHistory",
          "name": "",
          "type": "tuple"
        }
      ],
      "stateMutability": "view",
      "type": "function",
      "constant": true
    },
    {
      "inputs": [
        {
          "components": [
            {
              "internalType": "string",
              "name": "name",
              "type": "string"
            },
            {
              "internalType": "string",
              "name": "manufacturerName",
              "type": "string"
            },
            {
              "internalType": "address",
              "name": "manufacturer",
              "type": "address"
            },
            {
              "internalType": "uint256",
              "name": "manDateEpoch",
              "type": "uint256"
            },
            {
              "internalType": "uint256",
              "name": "expDateEpoch",
              "type": "uint256"
            },
            {
              "internalType": "bool",
              "name": "isInBatch",
              "type": "bool"
            },
            {
              "internalType": "uint256",
              "name": "batchCount",
              "type": "uint256"
            },
            {
              "internalType": "string",
              "name": "barcodeId",
              "type": "string"
            },
            {
              "internalType": "string",
              "name": "productImage",
              "type": "string"
            },
            {
              "internalType": "enum Types.ProductType",
              "name": "productType",
              "type": "uint8"
            },
            {
              "internalType": "string",
              "name": "scientificName",
              "type": "string"
            },
            {
              "internalType": "string",
              "name": "usage",
              "type": "string"
            },
            {
              "internalType": "string[]",
              "name": "composition",
              "type": "string[]"
            },
            {
              "internalType": "string[]",
              "name": "sideEffects",
              "type": "string[]"
            }
          ],
          "internalType": "struct Types.Product",
          "name": "product_",
          "type": "tuple"
        },
        {
          "internalType": "uint256",
          "name": "currentTime_",
          "type": "uint256"
        }
      ],
      "name": "addProduct",
      "outputs": [],
      "stateMutability": "nonpayable",
      "type": "function"
    },
    {
      "inputs": [
        {
          "internalType": "address",
          "name": "partyId_",
          "type": "address"
        },
        {
          "internalType": "string",
          "name": "barcodeId_",
          "type": "string"
        },
        {
          "internalType": "uint256",
          "name": "currentTime_",
          "type": "uint256"
        }
      ],
      "name": "sellProduct",
      "outputs": [],
      "stateMutability": "nonpayable",
      "type": "function"
    },
    {
      "inputs": [
        {
          "components": [
            {
              "internalType": "enum Types.UserRole",
              "name": "role",
              "type": "uint8"
            },
            {
              "internalType": "address",
              "name": "id_",
              "type": "address"
            },
            {
              "internalType": "string",
              "name": "name",
              "type": "string"
            },
            {
              "internalType": "string",
              "name": "email",
              "type": "string"
            }
          ],
          "internalType": "struct Types.UserDetails",
          "name": "user_",
          "type": "tuple"
        }
      ],
      "name": "addParty",
      "outputs": [],
      "stateMutability": "nonpayable",
      "type": "function"
    },
    {
      "inputs": [
        {
          "internalType": "address",
          "name": "id_",
          "type": "address"
        }
      ],
      "name": "getUserDetails",
      "outputs": [
        {
          "components": [
            {
              "internalType": "enum Types.UserRole",
              "name": "role",
              "type": "uint8"
            },
            {
              "internalType": "address",
              "name": "id_",
              "type": "address"
            },
            {
              "internalType": "string",
              "name": "name",
              "type": "string"
            },
            {
              "internalType": "string",
              "name": "email",
              "type": "string"
            }
          ],
          "internalType": "struct Types.UserDetails",
          "name": "",
          "type": "tuple"
        }
      ],
      "stateMutability": "view",
      "type": "function",
      "constant": true
    },
    {
      "inputs": [],
      "name": "getMyDetails",
      "outputs": [
        {
          "components": [
            {
              "internalType": "enum Types.UserRole",
              "name": "role",
              "type": "uint8"
            },
            {
              "internalType": "address",
              "name": "id_",
              "type": "address"
            },
            {
              "internalType": "string",
              "name": "name",
              "type": "string"
            },
            {
              "internalType": "string",
              "name": "email",
              "type": "string"
            }
          ],
          "internalType": "struct Types.UserDetails",
          "name": "",
          "type": "tuple"
        }
      ],
      "stateMutability": "view",
      "type": "function",
      "constant": true
    },
    {
      "inputs": [],
      "name": "getMyUsersList",
      "outputs": [
        {
          "components": [
            {
              "internalType": "enum Types.UserRole",
              "name": "role",
              "type": "uint8"
            },
            {
              "internalType": "address",
              "name": "id_",
              "type": "address"
            },
            {
              "internalType": "string",
              "name": "name",
              "type": "string"
            },
            {
              "internalType": "string",
              "name": "email",
              "type": "string"
            }
          ],
          "internalType": "struct Types.UserDetails[]",
          "name": "usersList_",
          "type": "tuple[]"
        }
      ],
      "stateMutability": "view",
      "type": "function",
      "constant": true
    }
  ],
  "bytecode": "0x608060405234801561001057600080fd5b50604051614af1380380614af183398101604081905261002f916102ff565b60408051608081018252600081523360208201529081018390526060810182905261005981610061565b505050610545565b60208101516001600160a01b031661007857600080fd5b8051602082015161008991906101b6565b156100da5760405162461bcd60e51b815260206004820152601f60248201527f53616d65207573657220776974682073616d6520726f6c652065786973747300604482015260640160405180910390fd5b6020808201516001600160a01b0316600090815290819052604090208151815483929190829060ff1916600183600381111561011857610118610368565b0217905550602082015181546001600160a01b0390911661010002610100600160a81b0319909116178155604082015160018201906101579082610407565b506060820151600282019061016c9082610407565b5050506040808201516060830151835192517f71d9dffdac919adfd06ab94bdebcd997efa2ba73e829a41e63107c7f8ae330f6936101ab9392916104f1565b60405180910390a150565b60006001600160a01b0382166101cb57600080fd5b6001600160a01b0382811660009081526020819052604090205461010090041615801590610235575082600381111561020657610206610368565b6001600160a01b03831660009081526020819052604090205460ff16600381111561023357610233610368565b145b9392505050565b634e487b7160e01b600052604160045260246000fd5b60005b8381101561026d578181015183820152602001610255565b50506000910152565b600082601f83011261028757600080fd5b81516001600160401b038111156102a0576102a061023c565b604051601f8201601f19908116603f011681016001600160401b03811182821017156102ce576102ce61023c565b6040528181528382016020018510156102e657600080fd5b6102f7826020830160208701610252565b949350505050565b6000806040838503121561031257600080fd5b82516001600160401b0381111561032857600080fd5b61033485828601610276565b602085015190935090506001600160401b0381111561035257600080fd5b61035e85828601610276565b9150509250929050565b634e487b7160e01b600052602160045260246000fd5b600181811c9082168061039257607f821691505b6020821081036103b257634e487b7160e01b600052602260045260246000fd5b50919050565b601f82111561040257806000526020600020601f840160051c810160208510156103df5750805b601f840160051c820191505b818110156103ff57600081556001016103eb565b50505b505050565b81516001600160401b038111156104205761042061023c565b6104348161042e845461037e565b846103b8565b6020601f82116001811461046857600083156104505750848201515b600019600385901b1c1916600184901b1784556103ff565b600084815260208120601f198516915b828110156104985787850151825560209485019460019092019101610478565b50848210156104b65786840151600019600387901b60f8161c191681555b50505050600190811b01905550565b600081518084526104dd816020860160208601610252565b601f01601f19169290920160200192915050565b60608152600061050460608301866104c5565b828103602084015261051681866104c5565b9150506004831061053757634e487b7160e01b600052602160045260246000fd5b826040830152949350505050565b61459d806105546000396000f3fe608060405234801561001057600080fd5b50600436106100935760003560e01c8063431bbb7e11610066578063431bbb7e146100ff5780638248581e14610114578063cc3d967b14610127578063e386cb5f1461013a578063fdca4ca31461014f57600080fd5b806302ee3a5214610098578063067f046a146100b657806306b7dd71146100cb57806316756b0e146100de575b600080fd5b6100a0610157565b6040516100ad9190613a30565b60405180910390f35b6100c96100c4366004613bac565b61074c565b005b6100c96100d9366004613c03565b610937565b6100f16100ec366004613cc5565b610944565b6040516100ad929190613d01565b610107610966565b6040516100ad9190613e4a565b6100c9610122366004613f22565b61099e565b610107610135366004614124565b610ad0565b610142610b09565b6040516100ad919061413f565b6100a0610b14565b60606004805480602002602001604051908101604052809291908181526020016000905b8282101561074357838290600052602060002090600e0201604051806101c00160405290816000820180546101af90614198565b80601f01602080910402602001604051908101604052809291908181526020018280546101db90614198565b80156102285780601f106101fd57610100808354040283529160200191610228565b820191906000526020600020905b81548152906001019060200180831161020b57829003601f168201915b5050505050815260200160018201805461024190614198565b80601f016020809104026020016040519081016040528092919081815260200182805461026d90614198565b80156102ba5780601f1061028f576101008083540402835291602001916102ba565b820191906000526020600020905b81548152906001019060200180831161029d57829003601f168201915b505050918352505060028201546001600160a01b031660208201526003820154604082015260048201546060820152600582015460ff1615156080820152600682015460a082015260078201805460c09092019161031790614198565b80601f016020809104026020016040519081016040528092919081815260200182805461034390614198565b80156103905780601f1061036557610100808354040283529160200191610390565b820191906000526020600020905b81548152906001019060200180831161037357829003601f168201915b505050505081526020016008820180546103a990614198565b80601f01602080910402602001604051908101604052809291908181526020018280546103d590614198565b80156104225780601f106103f757610100808354040283529160200191610422565b820191906000526020600020905b81548152906001019060200180831161040557829003601f168201915b5050509183525050600982015460209091019060ff16600481111561044957610449613869565b600481111561045a5761045a613869565b8152602001600a8201805461046e90614198565b80601f016020809104026020016040519081016040528092919081815260200182805461049a90614198565b80156104e75780601f106104bc576101008083540402835291602001916104e7565b820191906000526020600020905b8154815290600101906020018083116104ca57829003601f168201915b50505050508152602001600b8201805461050090614198565b80601f016020809104026020016040519081016040528092919081815260200182805461052c90614198565b80156105795780601f1061054e57610100808354040283529160200191610579565b820191906000526020600020905b81548152906001019060200180831161055c57829003601f168201915b50505050508152602001600c8201805480602002602001604051908101604052809291908181526020016000905b828210156106535783829060005260206000200180546105c690614198565b80601f01602080910402602001604051908101604052809291908181526020018280546105f290614198565b801561063f5780601f106106145761010080835404028352916020019161063f565b820191906000526020600020905b81548152906001019060200180831161062257829003601f168201915b5050505050815260200190600101906105a7565b505050508152602001600d8201805480602002602001604051908101604052809291908181526020016000905b8282101561072c57838290600052602060002001805461069f90614198565b80601f01602080910402602001604051908101604052809291908181526020018280546106cb90614198565b80156107185780601f106106ed57610100808354040283529160200191610718565b820191906000526020600020905b8154815290600101906020018083116106fb57829003601f168201915b505050505081526020019060010190610680565b50505050815250508152602001906001019061017b565b50505050905090565b61075583610b1e565b6107985760405162461bcd60e51b815260206004820152600f60248201526e14185c9d1e481b9bdd08199bdd5b99608a1b60448201526064015b60405180910390fd5b6001600160a01b0383166000908152602081905260408082208151608081019092528054829060ff1660038111156107d2576107d2613869565b60038111156107e3576107e3613869565b8152815461010090046001600160a01b0316602082015260018201805460409092019161080f90614198565b80601f016020809104026020016040519081016040528092919081815260200182805461083b90614198565b80156108885780601f1061085d57610100808354040283529160200191610888565b820191906000526020600020905b81548152906001019060200180831161086b57829003601f168201915b505050505081526020016002820180546108a190614198565b80601f01602080910402602001604051908101604052809291908181526020018280546108cd90614198565b801561091a5780601f106108ef5761010080835404028352916020019161091a565b820191906000526020600020905b8154815290600101906020018083116108fd57829003601f168201915b505050505081525050905061093184848385610b63565b50505050565b6109418133611417565b50565b61094c613645565b6109546136d0565b61095d8361165a565b91509150915091565b61099060408051608081019091528060008152600060208201526060604082018190529081015290565b61099933611d3d565b905090565b336109eb5760405162461bcd60e51b815260206004820152601960248201527f53656e6465722773206164647265737320697320456d70747900000000000000604482015260640161078f565b3360009081526020819052604090205461010090046001600160a01b0316610a555760405162461bcd60e51b815260206004820152601760248201527f557365722773206164647265737320697320456d707479000000000000000000604482015260640161078f565b3360009081526020819052604081205460ff166003811115610a7957610a79613869565b14610ac25760405162461bcd60e51b815260206004820152601960248201527813db9b1e481b585b9d599858dd1d5c995c8818d85b88185919603a1b604482015260640161078f565b610acc8282611da5565b5050565b610afa60408051608081019091528060008152600060208201526060604082018190529081015290565b610b0382611d3d565b92915050565b6060610999336121de565b6060610999612828565b6000806001600160a01b038316610b355792915050565b6001600160a01b0383811660009081526020819052604090205461010090041615610b035750600192915050565b82610c26600582604051610b7791906141d2565b90815260200160405180910390206007018054610b9390614198565b80601f0160208091040260200160405190810160405280929190818152602001828054610bbf90614198565b8015610c0c5780601f10610be157610100808354040283529160200191610c0c565b820191906000526020600020905b815481529060010190602001808311610bef57829003601f168201915b505050505060405180602001604052806000815250612f6d565b15610c3057600080fd5b6000600585604051610c4291906141d2565b9081526020016040518091039020604051806101c0016040529081600082018054610c6c90614198565b80601f0160208091040260200160405190810160405280929190818152602001828054610c9890614198565b8015610ce55780601f10610cba57610100808354040283529160200191610ce5565b820191906000526020600020905b815481529060010190602001808311610cc857829003601f168201915b50505050508152602001600182018054610cfe90614198565b80601f0160208091040260200160405190810160405280929190818152602001828054610d2a90614198565b8015610d775780601f10610d4c57610100808354040283529160200191610d77565b820191906000526020600020905b815481529060010190602001808311610d5a57829003601f168201915b505050918352505060028201546001600160a01b031660208201526003820154604082015260048201546060820152600582015460ff1615156080820152600682015460a082015260078201805460c090920191610dd490614198565b80601f0160208091040260200160405190810160405280929190818152602001828054610e0090614198565b8015610e4d5780601f10610e2257610100808354040283529160200191610e4d565b820191906000526020600020905b815481529060010190602001808311610e3057829003601f168201915b50505050508152602001600882018054610e6690614198565b80601f0160208091040260200160405190810160405280929190818152602001828054610e9290614198565b8015610edf5780601f10610eb457610100808354040283529160200191610edf565b820191906000526020600020905b815481529060010190602001808311610ec257829003601f168201915b5050509183525050600982015460209091019060ff166004811115610f0657610f06613869565b6004811115610f1757610f17613869565b8152602001600a82018054610f2b90614198565b80601f0160208091040260200160405190810160405280929190818152602001828054610f5790614198565b8015610fa45780601f10610f7957610100808354040283529160200191610fa4565b820191906000526020600020905b815481529060010190602001808311610f8757829003601f168201915b50505050508152602001600b82018054610fbd90614198565b80601f0160208091040260200160405190810160405280929190818152602001828054610fe990614198565b80156110365780601f1061100b57610100808354040283529160200191611036565b820191906000526020600020905b81548152906001019060200180831161101957829003601f168201915b50505050508152602001600c8201805480602002602001604051908101604052809291908181526020016000905b8282101561111057838290600052602060002001805461108390614198565b80601f01602080910402602001604051908101604052809291908181526020018280546110af90614198565b80156110fc5780601f106110d1576101008083540402835291602001916110fc565b820191906000526020600020905b8154815290600101906020018083116110df57829003601f168201915b505050505081526020019060010190611064565b505050508152602001600d8201805480602002602001604051908101604052809291908181526020016000905b828210156111e957838290600052602060002001805461115c90614198565b80601f016020809104026020016040519081016040528092919081815260200182805461118890614198565b80156111d55780601f106111aa576101008083540402835291602001916111d5565b820191906000526020600020905b8154815290600101906020018083116111b857829003601f168201915b50505050508152602001906001019061113d565b50505091525050604080518082019091526020808701516001600160a01b03168252810185905290915060018551600381111561122857611228613869565b0361127f578060078760405161123e91906141d2565b9081526040516020918190038201902082516002820180546001600160a01b0319166001600160a01b039092169190911790559101516003909101556113a9565b60028551600381111561129457611294613869565b036112eb57806007876040516112aa91906141d2565b9081526040516020918190038201902082516004820180546001600160a01b0319166001600160a01b039092169190911790559101516005909101556113a9565b60038551600381111561130057611300613869565b0361136b5760078660405161131591906141d2565b90815260405160209181900382019020600601805460018082018355600092835291839020845160029092020180546001600160a01b0319166001600160a01b03909216919091178155918301519101556113a9565b60405162461bcd60e51b81526020600482015260136024820152722737ba103b30b634b21037b832b930ba34b7b760691b604482015260640161078f565b6113b4338888612fc6565b7fe506af946a27b45d5181c4cb95c3a98fa538282ac2f40f4afce8a3de328e51fd826000015183602001518461014001518560e0015189604001518a60600151604051611406969594939291906141ee565b60405180910390a150505050505050565b6001600160a01b03811661142a57600080fd5b60208201516001600160a01b031661144157600080fd5b600061144c8261329d565b51600381111561145e5761145e613869565b14801561147d575060018251600381111561147b5761147b613869565b145b15611532576001600160a01b0381166000908152600160208181526040832080548084018255908452922084516003938402909101805486949193849260ff199092169184908111156114d2576114d2613869565b0217905550602082015181546001600160a01b0390911661010002610100600160a81b03199091161781556040820151600182019061151190826142bc565b506060820151600282019061152690826142bc565b505050610acc8261346d565b600161153d8261329d565b51600381111561154f5761154f613869565b14801561156e575060028251600381111561156c5761156c613869565b145b156115c8576001600160a01b038116600090815260026020908152604082208054600181810183559184529190922084516003928302909101805486949193849260ff19909216919084908111156114d2576114d2613869565b60026115d38261329d565b5160038111156115e5576115e5613869565b148015611604575060038251600381111561160257611602613869565b145b1561136b576001600160a01b0381166000908152600360208181526040832080546001818101835591855291909320855191830201805486949193849260ff19909216919084908111156114d2576114d2613869565b611662613645565b61166a6136d0565b60058360405161167a91906141d2565b908152602001604051809103902060078460405161169891906141d2565b908152602001604051809103902081604051806101c00160405290816000820180546116c390614198565b80601f01602080910402602001604051908101604052809291908181526020018280546116ef90614198565b801561173c5780601f106117115761010080835404028352916020019161173c565b820191906000526020600020905b81548152906001019060200180831161171f57829003601f168201915b5050505050815260200160018201805461175590614198565b80601f016020809104026020016040519081016040528092919081815260200182805461178190614198565b80156117ce5780601f106117a3576101008083540402835291602001916117ce565b820191906000526020600020905b8154815290600101906020018083116117b157829003601f168201915b505050918352505060028201546001600160a01b031660208201526003820154604082015260048201546060820152600582015460ff1615156080820152600682015460a082015260078201805460c09092019161182b90614198565b80601f016020809104026020016040519081016040528092919081815260200182805461185790614198565b80156118a45780601f10611879576101008083540402835291602001916118a4565b820191906000526020600020905b81548152906001019060200180831161188757829003601f168201915b505050505081526020016008820180546118bd90614198565b80601f01602080910402602001604051908101604052809291908181526020018280546118e990614198565b80156119365780601f1061190b57610100808354040283529160200191611936565b820191906000526020600020905b81548152906001019060200180831161191957829003601f168201915b5050509183525050600982015460209091019060ff16600481111561195d5761195d613869565b600481111561196e5761196e613869565b8152602001600a8201805461198290614198565b80601f01602080910402602001604051908101604052809291908181526020018280546119ae90614198565b80156119fb5780601f106119d0576101008083540402835291602001916119fb565b820191906000526020600020905b8154815290600101906020018083116119de57829003601f168201915b50505050508152602001600b82018054611a1490614198565b80601f0160208091040260200160405190810160405280929190818152602001828054611a4090614198565b8015611a8d5780601f10611a6257610100808354040283529160200191611a8d565b820191906000526020600020905b815481529060010190602001808311611a7057829003601f168201915b50505050508152602001600c8201805480602002602001604051908101604052809291908181526020016000905b82821015611b67578382906000526020600020018054611ada90614198565b80601f0160208091040260200160405190810160405280929190818152602001828054611b0690614198565b8015611b535780601f10611b2857610100808354040283529160200191611b53565b820191906000526020600020905b815481529060010190602001808311611b3657829003601f168201915b505050505081526020019060010190611abb565b505050508152602001600d8201805480602002602001604051908101604052809291908181526020016000905b82821015611c40578382906000526020600020018054611bb390614198565b80601f0160208091040260200160405190810160405280929190818152602001828054611bdf90614198565b8015611c2c5780601f10611c0157610100808354040283529160200191611c2c565b820191906000526020600020905b815481529060010190602001808311611c0f57829003601f168201915b505050505081526020019060010190611b94565b505050915250506040805160c08101825283546001600160a01b0390811660808301908152600186015460a0840152825282518084018452600286015482168152600386015460208281019190915280840191909152835180850185526004870154909216825260058601548282015282840191909152600685018054845181840281018401909552808552949650919385936060860193909290919060009084015b82821015611d2b576000848152602090819020604080518082019091526002850290910180546001600160a01b03168252600190810154828401529083529092019101611ce3565b50505091525092969095509350505050565b611d6760408051608081019091528060008152600060208201526060604082018190529081015290565b6001600160a01b038216611d7a57600080fd5b6000611d858361329d565b602001516001600160a01b031603611d9c57600080fd5b610b038261329d565b8160e00151611dbd600582604051610b7791906141d2565b611dc657600080fd5b60408301516001600160a01b03163314611e1e5760405162461bcd60e51b815260206004820152601960248201527813db9b1e481b585b9d599858dd1d5c995c8818d85b88185919603a1b604482015260640161078f565b6004805460018101825560009190915283518491600e027f8a35acfbc15ff81a39ae7d344fd709f28e8600b4aa8c65c6b64bfe7fe36bd19b01908190611e6490826142bc565b5060208201516001820190611e7990826142bc565b5060408201516002820180546001600160a01b0319166001600160a01b03909216919091179055606082015160038201556080820151600482015560a082015160058201805460ff191691151591909117905560c0820151600682015560e08201516007820190611eea90826142bc565b506101008201516008820190611f0090826142bc565b5061012082015160098201805460ff19166001836004811115611f2557611f25613869565b0217905550610140820151600a820190611f3f90826142bc565b50610160820151600b820190611f5590826142bc565b506101808201518051611f7291600c840191602090910190613739565b506101a08201518051611f8f91600d840191602090910190613739565b5050508260058460e00151604051611fa791906141d2565b90815260405190819003602001902081518190611fc490826142bc565b5060208201516001820190611fd990826142bc565b5060408201516002820180546001600160a01b0319166001600160a01b03909216919091179055606082015160038201556080820151600482015560a082015160058201805460ff191691151591909117905560c0820151600682015560e0820151600782019061204a90826142bc565b50610100820151600882019061206090826142bc565b5061012082015160098201805460ff1916600183600481111561208557612085613869565b0217905550610140820151600a82019061209f90826142bc565b50610160820151600b8201906120b590826142bc565b5061018082015180516120d291600c840191602090910190613739565b506101a082015180516120ef91600d840191602090910190613739565b50506040805180820182523381526020810185905260e0860151915190925060079161211a916141d2565b9081526040805160209281900383019020835181546001600160a01b0319166001600160a01b03909116178155928201516001938401553360009081526006835290812060e0870151815494850182559082529190209091019061217e90826142bc565b507f6d3f7be874572e7843c7697df05672c142e68bab8cc20a6a88f885ed0a49d900836000015184602001518561014001518660e00151876060015188608001516040516121d19695949392919061437d565b60405180910390a1505050565b60606001600160a01b0382166122245760405162461bcd60e51b815260206004820152600b60248201526a496420697320656d70747960a81b604482015260640161078f565b600061222f8361329d565b51600381111561224157612241613869565b0361242b576001600160a01b038216600090815260016020908152604080832080548251818502810185019093528083529193909284015b8282101561242057838290600052602060002090600302016040518060800160405290816000820160009054906101000a900460ff1660038111156122c0576122c0613869565b60038111156122d1576122d1613869565b8152815461010090046001600160a01b031660208201526001820180546040909201916122fd90614198565b80601f016020809104026020016040519081016040528092919081815260200182805461232990614198565b80156123765780601f1061234b57610100808354040283529160200191612376565b820191906000526020600020905b81548152906001019060200180831161235957829003601f168201915b5050505050815260200160028201805461238f90614198565b80601f01602080910402602001604051908101604052809291908181526020018280546123bb90614198565b80156124085780601f106123dd57610100808354040283529160200191612408565b820191906000526020600020905b8154815290600101906020018083116123eb57829003601f168201915b50505050508152505081526020019060010190612279565b505050509050919050565b60016124368361329d565b51600381111561244857612448613869565b03612627576001600160a01b038216600090815260026020908152604080832080548251818502810185019093528083529193909284015b8282101561242057838290600052602060002090600302016040518060800160405290816000820160009054906101000a900460ff1660038111156124c7576124c7613869565b60038111156124d8576124d8613869565b8152815461010090046001600160a01b0316602082015260018201805460409092019161250490614198565b80601f016020809104026020016040519081016040528092919081815260200182805461253090614198565b801561257d5780601f106125525761010080835404028352916020019161257d565b820191906000526020600020905b81548152906001019060200180831161256057829003601f168201915b5050505050815260200160028201805461259690614198565b80601f01602080910402602001604051908101604052809291908181526020018280546125c290614198565b801561260f5780601f106125e45761010080835404028352916020019161260f565b820191906000526020600020905b8154815290600101906020018083116125f257829003601f168201915b50505050508152505081526020019060010190612480565b60026126328361329d565b51600381111561264457612644613869565b0361136b576001600160a01b038216600090815260036020908152604080832080548251818502810185019093528083529193909284015b8282101561242057838290600052602060002090600302016040518060800160405290816000820160009054906101000a900460ff1660038111156126c3576126c3613869565b60038111156126d4576126d4613869565b8152815461010090046001600160a01b0316602082015260018201805460409092019161270090614198565b80601f016020809104026020016040519081016040528092919081815260200182805461272c90614198565b80156127795780601f1061274e57610100808354040283529160200191612779565b820191906000526020600020905b81548152906001019060200180831161275c57829003601f168201915b5050505050815260200160028201805461279290614198565b80601f01602080910402602001604051908101604052809291908181526020018280546127be90614198565b801561280b5780601f106127e05761010080835404028352916020019161280b565b820191906000526020600020905b8154815290600101906020018083116127ee57829003601f168201915b5050505050815250508152602001906001019061267c565b919050565b336000908152600660209081526040808320805482518185028101850190935280835260609493849084015b8282101561290057838290600052602060002001805461287390614198565b80601f016020809104026020016040519081016040528092919081815260200182805461289f90614198565b80156128ec5780601f106128c1576101008083540402835291602001916128ec565b820191906000526020600020905b8154815290600101906020018083116128cf57829003601f168201915b505050505081526020019060010190612854565b505050509050600081516001600160401b0381111561292157612921613aac565b60405190808252806020026020018201604052801561295a57816020015b612947613645565b81526020019060019003908161293f5790505b50905060005b8251811015612f6657600583828151811061297d5761297d6143e0565b602002602001015160405161299291906141d2565b9081526020016040518091039020604051806101c00160405290816000820180546129bc90614198565b80601f01602080910402602001604051908101604052809291908181526020018280546129e890614198565b8015612a355780601f10612a0a57610100808354040283529160200191612a35565b820191906000526020600020905b815481529060010190602001808311612a1857829003601f168201915b50505050508152602001600182018054612a4e90614198565b80601f0160208091040260200160405190810160405280929190818152602001828054612a7a90614198565b8015612ac75780601f10612a9c57610100808354040283529160200191612ac7565b820191906000526020600020905b815481529060010190602001808311612aaa57829003601f168201915b505050918352505060028201546001600160a01b031660208201526003820154604082015260048201546060820152600582015460ff1615156080820152600682015460a082015260078201805460c090920191612b2490614198565b80601f0160208091040260200160405190810160405280929190818152602001828054612b5090614198565b8015612b9d5780601f10612b7257610100808354040283529160200191612b9d565b820191906000526020600020905b815481529060010190602001808311612b8057829003601f168201915b50505050508152602001600882018054612bb690614198565b80601f0160208091040260200160405190810160405280929190818152602001828054612be290614198565b8015612c2f5780601f10612c0457610100808354040283529160200191612c2f565b820191906000526020600020905b815481529060010190602001808311612c1257829003601f168201915b5050509183525050600982015460209091019060ff166004811115612c5657612c56613869565b6004811115612c6757612c67613869565b8152602001600a82018054612c7b90614198565b80601f0160208091040260200160405190810160405280929190818152602001828054612ca790614198565b8015612cf45780601f10612cc957610100808354040283529160200191612cf4565b820191906000526020600020905b815481529060010190602001808311612cd757829003601f168201915b50505050508152602001600b82018054612d0d90614198565b80601f0160208091040260200160405190810160405280929190818152602001828054612d3990614198565b8015612d865780601f10612d5b57610100808354040283529160200191612d86565b820191906000526020600020905b815481529060010190602001808311612d6957829003601f168201915b50505050508152602001600c8201805480602002602001604051908101604052809291908181526020016000905b82821015612e60578382906000526020600020018054612dd390614198565b80601f0160208091040260200160405190810160405280929190818152602001828054612dff90614198565b8015612e4c5780601f10612e2157610100808354040283529160200191612e4c565b820191906000526020600020905b815481529060010190602001808311612e2f57829003601f168201915b505050505081526020019060010190612db4565b505050508152602001600d8201805480602002602001604051908101604052809291908181526020016000905b82821015612f39578382906000526020600020018054612eac90614198565b80601f0160208091040260200160405190810160405280929190818152602001828054612ed890614198565b8015612f255780601f10612efa57610100808354040283529160200191612f25565b820191906000526020600020905b815481529060010190602001808311612f0857829003601f168201915b505050505081526020019060010190612e8d565b5050505081525050828281518110612f5357612f536143e0565b6020908102919091010152600101612960565b5092915050565b600081604051602001612f8091906141d2565b6040516020818303038152906040528051906020012083604051602001612fa791906141d2565b6040516020818303038152906040528051906020012014905092915050565b6001600160a01b038216600090815260066020908152604082208054600181018255908352912001612ff882826142bc565b506001600160a01b038316600090815260066020908152604080832080548251818502810185019093528083529192909190849084015b828210156130db57838290600052602060002001805461304e90614198565b80601f016020809104026020016040519081016040528092919081815260200182805461307a90614198565b80156130c75780601f1061309c576101008083540402835291602001916130c7565b820191906000526020600020905b8154815290600101906020018083116130aa57829003601f168201915b50505050508152602001906001019061302f565b5050505090506000815160016130f1919061440c565b905060005b825181101561313757613122838281518110613114576131146143e0565b602002602001015185612f6d565b1561312f57809150613137565b6001016130f6565b50815181106131485761314861441f565b8151600103613177576001600160a01b03851660009081526006602052604081206131729161378f565b613296565b6001600160a01b0385166000908152600660205260409020825161319d90600190614435565b815481106131ad576131ad6143e0565b9060005260206000200160066000876001600160a01b03166001600160a01b0316815260200190815260200160002082815481106131ed576131ed6143e0565b9060005260206000200190816132039190614448565b506001600160a01b0385166000908152600660205260409020825161322a90600190614435565b8154811061323a5761323a6143e0565b90600052602060002001600061325091906137ad565b6001600160a01b03851660009081526006602052604090208054806132775761327761451c565b60019003818190600052602060002001600061329391906137ad565b90555b5050505050565b6132c760408051608081019091528060008152600060208201526060604082018190529081015290565b6001600160a01b0382166132da57600080fd5b6001600160a01b038216600090815260208190526040908190208151608081019092528054829060ff16600381111561331557613315613869565b600381111561332657613326613869565b8152815461010090046001600160a01b0316602082015260018201805460409092019161335290614198565b80601f016020809104026020016040519081016040528092919081815260200182805461337e90614198565b80156133cb5780601f106133a0576101008083540402835291602001916133cb565b820191906000526020600020905b8154815290600101906020018083116133ae57829003601f168201915b505050505081526020016002820180546133e490614198565b80601f016020809104026020016040519081016040528092919081815260200182805461341090614198565b801561345d5780601f106134325761010080835404028352916020019161345d565b820191906000526020600020905b81548152906001019060200180831161344057829003601f168201915b5050505050815250509050919050565b60208101516001600160a01b031661348457600080fd5b613496816000015182602001516135bf565b156134e35760405162461bcd60e51b815260206004820152601f60248201527f53616d65207573657220776974682073616d6520726f6c652065786973747300604482015260640161078f565b6020808201516001600160a01b0316600090815290819052604090208151815483929190829060ff1916600183600381111561352157613521613869565b0217905550602082015181546001600160a01b0390911661010002610100600160a81b03199091161781556040820151600182019061356090826142bc565b506060820151600282019061357590826142bc565b5050506040808201516060830151835192517f71d9dffdac919adfd06ab94bdebcd997efa2ba73e829a41e63107c7f8ae330f6936135b4939291614532565b60405180910390a150565b60006001600160a01b0382166135d457600080fd5b6001600160a01b038281166000908152602081905260409020546101009004161580159061363e575082600381111561360f5761360f613869565b6001600160a01b03831660009081526020819052604090205460ff16600381111561363c5761363c613869565b145b9392505050565b604051806101c00160405280606081526020016060815260200160006001600160a01b031681526020016000815260200160008152602001600015158152602001600081526020016060815260200160608152602001600060048111156136ae576136ae613869565b8152602001606081526020016060815260200160608152602001606081525090565b6040805160c0810190915260006080820181815260a08301919091528190815260200161370d604080518082019091526000808252602082015290565b815260200161372c604080518082019091526000808252602082015290565b8152602001606081525090565b82805482825590600052602060002090810192821561377f579160200282015b8281111561377f578251829061376f90826142bc565b5091602001919060010190613759565b5061378b9291506137e7565b5090565b508054600082559060005260206000209081019061094191906137e7565b5080546137b990614198565b6000825580601f106137c9575050565b601f0160209004906000526020600020908101906109419190613804565b8082111561378b5760006137fb82826137ad565b506001016137e7565b5b8082111561378b5760008155600101613805565b60005b8381101561383457818101518382015260200161381c565b50506000910152565b60008151808452613855816020860160208601613819565b601f01601f19169290920160200192915050565b634e487b7160e01b600052602160045260246000fd5b6005811061388f5761388f613869565b9052565b600082825180855260208501945060208160051b8301016020850160005b838110156138e357601f198584030188526138cd83835161383d565b60209889019890935091909101906001016138b1565b50909695505050505050565b600081516101c084526139066101c085018261383d565b90506020830151848203602086015261391f828261383d565b915050604083015161393c60408601826001600160a01b03169052565b50606083015160608501526080830151608085015260a083015161396460a086018215159052565b5060c083015160c085015260e083015184820360e0860152613986828261383d565b9150506101008301518482036101008601526139a2828261383d565b9150506101208301516139b961012086018261387f565b506101408301518482036101408601526139d3828261383d565b9150506101608301518482036101608601526139ef828261383d565b915050610180830151848203610180860152613a0b8282613893565b9150506101a08301518482036101a0860152613a278282613893565b95945050505050565b6000602082016020835280845180835260408501915060408160051b86010192506020860160005b82811015613a8957603f19878603018452613a748583516138ef565b94506020938401939190910190600101613a58565b50929695505050505050565b80356001600160a01b038116811461282357600080fd5b634e487b7160e01b600052604160045260246000fd5b604051608081016001600160401b0381118282101715613ae457613ae4613aac565b60405290565b6040516101c081016001600160401b0381118282101715613ae457613ae4613aac565b604051601f8201601f191681016001600160401b0381118282101715613b3557613b35613aac565b604052919050565b600082601f830112613b4e57600080fd5b81356001600160401b03811115613b6757613b67613aac565b613b7a601f8201601f1916602001613b0d565b818152846020838601011115613b8f57600080fd5b816020850160208301376000918101602001919091529392505050565b600080600060608486031215613bc157600080fd5b613bca84613a95565b925060208401356001600160401b03811115613be557600080fd5b613bf186828701613b3d565b93969395505050506040919091013590565b600060208284031215613c1557600080fd5b81356001600160401b03811115613c2b57600080fd5b820160808185031215613c3d57600080fd5b613c45613ac2565b813560048110613c5457600080fd5b8152613c6260208301613a95565b602082015260408201356001600160401b03811115613c8057600080fd5b613c8c86828501613b3d565b60408301525060608201356001600160401b03811115613cab57600080fd5b613cb786828501613b3d565b606083015250949350505050565b600060208284031215613cd757600080fd5b81356001600160401b03811115613ced57600080fd5b613cf984828501613b3d565b949350505050565b604081526000613d1460408301856138ef565b828103602084015260e08101613d3e82865180516001600160a01b03168252602090810151910152565b60208581015180516001600160a01b0316604085015290810151606084015250604085015180516001600160a01b03166080840152602081015160a084015250606085015160e060c08401528051918290526020810192600092610100909101905b80841015613ddd57613dc682865180516001600160a01b03168252602090810151910152565b604082019150602085019450600184019350613da0565b50979650505050505050565b6004811061388f5761388f613869565b613e04828251613de9565b60018060a01b0360208201511660208301526000604082015160806040850152613e31608085018261383d565b905060608301518482036060860152613a27828261383d565b60208152600061363e6020830184613df9565b8035801515811461282357600080fd5b80356005811061282357600080fd5b600082601f830112613e8d57600080fd5b81356001600160401b03811115613ea657613ea6613aac565b8060051b613eb660208201613b0d565b91825260208185018101929081019086841115613ed257600080fd5b6020860192505b83831015613f185782356001600160401b03811115613ef757600080fd5b613f06886020838a0101613b3d565b83525060209283019290910190613ed9565b9695505050505050565b60008060408385031215613f3557600080fd5b82356001600160401b03811115613f4b57600080fd5b83016101c08186031215613f5e57600080fd5b613f66613aea565b81356001600160401b03811115613f7c57600080fd5b613f8887828501613b3d565b82525060208201356001600160401b03811115613fa457600080fd5b613fb087828501613b3d565b602083015250613fc260408301613a95565b60408201526060828101359082015260808083013590820152613fe760a08301613e5d565b60a082015260c0828101359082015260e08201356001600160401b0381111561400f57600080fd5b61401b87828501613b3d565b60e0830152506101008201356001600160401b0381111561403b57600080fd5b61404787828501613b3d565b6101008301525061405b6101208301613e6d565b6101208201526101408201356001600160401b0381111561407b57600080fd5b61408787828501613b3d565b610140830152506101608201356001600160401b038111156140a857600080fd5b6140b487828501613b3d565b610160830152506101808201356001600160401b038111156140d557600080fd5b6140e187828501613e7c565b610180830152506101a08201356001600160401b0381111561410257600080fd5b61410e87828501613e7c565b6101a08301525095602094909401359450505050565b60006020828403121561413657600080fd5b61363e82613a95565b6000602082016020835280845180835260408501915060408160051b86010192506020860160005b82811015613a8957603f19878603018452614183858351613df9565b94506020938401939190910190600101614167565b600181811c908216806141ac57607f821691505b6020821081036141cc57634e487b7160e01b600052602260045260246000fd5b50919050565b600082516141e4818460208701613819565b9190910192915050565b60c08152600061420160c083018961383d565b8281036020840152614213818961383d565b90508281036040840152614227818861383d565b9050828103606084015261423b818761383d565b9050828103608084015261424f818661383d565b905082810360a0840152614263818561383d565b9998505050505050505050565b601f8211156142b757806000526020600020601f840160051c810160208510156142975750805b601f840160051c820191505b8181101561329657600081556001016142a3565b505050565b81516001600160401b038111156142d5576142d5613aac565b6142e9816142e38454614198565b84614270565b6020601f82116001811461432057600083156143055750848201515b600184901b600019600386901b1c198216175b855550613296565b600084815260208120601f198516915b828110156143505787850151825560209485019460019092019101614330565b508482101561436e5786840151600019600387901b60f8161c191681555b50505050600190811b01905550565b60c08152600061439060c083018961383d565b82810360208401526143a2818961383d565b905082810360408401526143b6818861383d565b905082810360608401526143ca818761383d565b6080840195909552505060a00152949350505050565b634e487b7160e01b600052603260045260246000fd5b634e487b7160e01b600052601160045260246000fd5b80820180821115610b0357610b036143f6565b634e487b7160e01b600052600160045260246000fd5b81810381811115610b0357610b036143f6565b818103614453575050565b61445d8254614198565b6001600160401b0381111561447457614474613aac565b614482816142e38454614198565b6000601f8211600181146144b45760008315614305575081850154600184901b600019600386901b1c19821617614318565b600085815260209020601f19841690600086815260209020845b838110156144ee57828601548255600195860195909101906020016144ce565b508583101561450c5781850154600019600388901b60f8161c191681555b5050505050600190811b01905550565b634e487b7160e01b600052603160045260246000fd5b606081526000614545606083018661383d565b8281036020840152614557818661383d565b915050613cf96040830184613de956fea2646970667358221220f6beb3157d5a01189d62a9a1d0cd6c9dc167bac7881ddc6036bddd31cebe321464736f6c634300081a0033",
  "immutableReferences": {},
  "source": "// SPDX-License-Identifier: GPL-3.0\npragma experimental ABIEncoderV2;\npragma solidity >=0.4.25 <0.9.0;\n\nimport \"./Products.sol\";\nimport \"./Users.sol\";\n\n/**\n * @title SupplyChain\n * @author Joy Wibowo | Kvantumlabs\n * @dev Implements the transparency in the supply chain to\n * understand the actual user & the flow of the products/medicines\n */\ncontract SupplyChain is Users, Products {\n    /**\n     * @dev Create a new SupplyChain with the provided 'manufacturer'\n     * @param name_ Name of the manufacturer\n     * @param email_ Email of the manufacturer\n     */\n    constructor(string memory name_, string memory email_) {\n        Types.UserDetails memory mn_ = Types.UserDetails({\n            role: Types.UserRole.Manufacturer,\n            id_: msg.sender,\n            name: name_,\n            email: email_\n        });\n        add(mn_);\n    }\n\n    /**\n     * @dev To get All the products list.\n     * @return productsList All the products that were added so far\n     */\n    function getAllProducts() public view returns (Types.Product[] memory) {\n        return products;\n    }\n\n    /**\n     * @dev To get all the products linked a particular user\n     * @return productsList All the products that were linked to current logged-in user\n     */\n    function getMyProducts() public view returns (Types.Product[] memory) {\n        return getUserProducts();\n    }\n\n    /**\n     * @dev Get single product\n     * @param barcodeId_ Unique ID of the product\n     * @return product_ Details of the product & it's timeline\n     * @return history_ product lifecycle, who purchased when\n     */\n    function getSingleProduct(string memory barcodeId_)\n        public\n        view\n        returns (Types.Product memory, Types.ProductHistory memory)\n    {\n        return getSpecificProduct(barcodeId_);\n    }\n\n    /**\n     * @dev Adds new product to the products list\n     * @param product_ unique ID of the product\n     * @param currentTime_ Current Date, Time in epoch (To store when it got added)\n     */\n    function addProduct(Types.Product memory product_, uint256 currentTime_)\n        public\n        onlyManufacturer\n    {\n        addAProduct(product_, currentTime_);\n    }\n\n    /**\n     * @dev Transfer the ownership\n     * @param partyId_ Purchase user's account address\n     * @param barcodeId_ unique ID of the product\n     * @param currentTime_ Current Date Time in epoch to keep track of the history\n     */\n    function sellProduct(\n        address partyId_,\n        string memory barcodeId_,\n        uint256 currentTime_\n    ) public {\n        require(isPartyExists(partyId_), \"Party not found\");\n        Types.UserDetails memory party_ = users[partyId_];\n        sell(partyId_, barcodeId_, party_, currentTime_);\n    }\n\n    /**\n     * @dev To add an user to my account, which can be used in future at the time of selling\n     * @param user_ Details of the user that need to be added\n     */\n    function addParty(Types.UserDetails memory user_) public {\n        addparty(user_, msg.sender);\n    }\n\n    /**\n     * @dev To get details of the user\n     * @param id_ User Id for whom the details were needed\n     * @return user_ Details of the current logged-in User\n     */\n    function getUserDetails(address id_)\n        public\n        view\n        returns (Types.UserDetails memory)\n    {\n        return getPartyDetails(id_);\n    }\n\n    /**\n     * @dev To get details of the current logged-in user\n     * @return user_ Details of the current logged-in User\n     */\n    function getMyDetails() public view returns (Types.UserDetails memory) {\n        return getPartyDetails(msg.sender);\n    }\n\n    /**\n     * @dev To get List of users that were added by the current logged-in user\n     * @return usersList_ List of UserDetail objects will be returned (Which are added by same user)\n     */\n    function getMyUsersList()\n        public\n        view\n        returns (Types.UserDetails[] memory usersList_)\n    {\n        return getMyPartyList(msg.sender);\n    }\n}\n",
  "sourcePath": "/workspace/sample-supply-chain-ethereum/blockchain/contracts/SupplyChain.sol",
  "compiler": {
    "name": "solc",
    "version": "0.8.26+commit.8a97fa7a.Emscripten.clang"
  },
  "schemaVersion": "3.4.16",
  "updatedAt": "2024-08-12T08:33:23.976Z",
  "networkType": "ethereum",
  "devdoc": {
    "author": "Joy Wibowo | Kvantumlabs",
    "details": "Implements the transparency in the supply chain to understand the actual user & the flow of the products/medicines",
    "kind": "dev",
    "methods": {
      "addParty((uint8,address,string,string))": {
        "details": "To add an user to my account, which can be used in future at the time of selling",
        "params": {
          "user_": "Details of the user that need to be added"
        }
      },
      "addProduct((string,string,address,uint256,uint256,bool,uint256,string,string,uint8,string,string,string[],string[]),uint256)": {
        "details": "Adds new product to the products list",
        "params": {
          "currentTime_": "Current Date, Time in epoch (To store when it got added)",
          "product_": "unique ID of the product"
        }
      },
      "constructor": {
        "details": "Create a new SupplyChain with the provided 'manufacturer'",
        "params": {
          "email_": "Email of the manufacturer",
          "name_": "Name of the manufacturer"
        }
      },
      "getAllProducts()": {
        "details": "To get All the products list.",
        "returns": {
          "_0": "productsList All the products that were added so far"
        }
      },
      "getMyDetails()": {
        "details": "To get details of the current logged-in user",
        "returns": {
          "_0": "user_ Details of the current logged-in User"
        }
      },
      "getMyProducts()": {
        "details": "To get all the products linked a particular user",
        "returns": {
          "_0": "productsList All the products that were linked to current logged-in user"
        }
      },
      "getMyUsersList()": {
        "details": "To get List of users that were added by the current logged-in user",
        "returns": {
          "usersList_": "List of UserDetail objects will be returned (Which are added by same user)"
        }
      },
      "getSingleProduct(string)": {
        "details": "Get single product",
        "params": {
          "barcodeId_": "Unique ID of the product"
        },
        "returns": {
          "_0": "product_ Details of the product & it's timeline",
          "_1": "history_ product lifecycle, who purchased when"
        }
      },
      "getUserDetails(address)": {
        "details": "To get details of the user",
        "params": {
          "id_": "User Id for whom the details were needed"
        },
        "returns": {
          "_0": "user_ Details of the current logged-in User"
        }
      },
      "sellProduct(address,string,uint256)": {
        "details": "Transfer the ownership",
        "params": {
          "barcodeId_": "unique ID of the product",
          "currentTime_": "Current Date Time in epoch to keep track of the history",
          "partyId_": "Purchase user's account address"
        }
      }
    },
    "title": "SupplyChain",
    "version": 1
  },
  "userdoc": {
    "kind": "user",
    "methods": {},
    "version": 1
  }
}